{
  "contractName": "SmartLock",
  "abi": [
    {
      "constant": true,
      "inputs": [],
      "name": "owner",
      "outputs": [
        {
          "name": "",
          "type": "address"
        }
      ],
      "payable": false,
      "stateMutability": "view",
      "type": "function"
    },
    {
      "inputs": [],
      "payable": false,
      "stateMutability": "nonpayable",
      "type": "constructor"
    },
    {
      "anonymous": false,
      "inputs": [
        {
          "indexed": false,
          "name": "sender",
          "type": "address"
        },
        {
          "indexed": false,
          "name": "receiver",
          "type": "address"
        },
        {
          "indexed": false,
          "name": "amount",
          "type": "uint256"
        }
      ],
      "name": "paymentDone",
      "type": "event"
    },
    {
      "constant": true,
      "inputs": [],
      "name": "getBalance",
      "outputs": [
        {
          "name": "",
          "type": "uint256"
        }
      ],
      "payable": false,
      "stateMutability": "view",
      "type": "function"
    },
    {
      "constant": false,
      "inputs": [
        {
          "name": "receiver",
          "type": "address"
        }
      ],
      "name": "payRent",
      "outputs": [
        {
          "name": "",
          "type": "uint256"
        }
      ],
      "payable": true,
      "stateMutability": "payable",
      "type": "function"
    },
    {
      "constant": true,
      "inputs": [
        {
          "name": "a",
          "type": "uint256"
        },
        {
          "name": "b",
          "type": "uint256"
        }
      ],
      "name": "add",
      "outputs": [
        {
          "name": "",
          "type": "uint256"
        }
      ],
      "payable": false,
      "stateMutability": "pure",
      "type": "function"
    }
  ],
  "bytecode": "0x608060405234801561001057600080fd5b50336000806101000a81548173ffffffffffffffffffffffffffffffffffffffff021916908373ffffffffffffffffffffffffffffffffffffffff1602179055506102ec806100606000396000f300608060405260043610610062576000357c0100000000000000000000000000000000000000000000000000000000900463ffffffff16806312065fe014610067578063771602f7146100925780638da5cb5b146100dd578063dc40bcbb14610134575b600080fd5b34801561007357600080fd5b5061007c61017e565b6040518082815260200191505060405180910390f35b34801561009e57600080fd5b506100c7600480360381019080803590602001909291908035906020019092919050505061019d565b6040518082815260200191505060405180910390f35b3480156100e957600080fd5b506100f26101aa565b604051808273ffffffffffffffffffffffffffffffffffffffff1673ffffffffffffffffffffffffffffffffffffffff16815260200191505060405180910390f35b610168600480360381019080803573ffffffffffffffffffffffffffffffffffffffff1690602001909291905050506101cf565b6040518082815260200191505060405180910390f35b60003373ffffffffffffffffffffffffffffffffffffffff1631905090565b6000818301905092915050565b6000809054906101000a900473ffffffffffffffffffffffffffffffffffffffff1681565b60008173ffffffffffffffffffffffffffffffffffffffff166108fc349081150290604051600060405180830381858888f19350505050158015610217573d6000803e3d6000fd5b507ff9686ef5bb45a185879682f1198dca16e8f3dc568c04864d28283a4b7e9ee114338334604051808473ffffffffffffffffffffffffffffffffffffffff1673ffffffffffffffffffffffffffffffffffffffff1681526020018373ffffffffffffffffffffffffffffffffffffffff1673ffffffffffffffffffffffffffffffffffffffff168152602001828152602001935050505060405180910390a1600190509190505600a165627a7a7230582018a14ec97c8117fd77aab5c5068c6dfc1e0c57bd323ae15373410f56e7038e4c0029",
  "source": "pragma solidity ^0.4.23;\r\n\r\ncontract SmartLock {\r\n    address public owner;\r\n    constructor() public {\r\n        owner = msg.sender;\r\n    }\r\n    event paymentDone(address sender, address receiver, uint amount);\r\n\r\n    function getBalance() public view returns (uint) {\r\n        return address(msg.sender).balance;\r\n    }\r\n    \r\n    function payRent(address receiver) public payable returns (uint) {\r\n        address(receiver).transfer(msg.value);\r\n        emit paymentDone(msg.sender, receiver, msg.value);\r\n        return 1;\r\n    }\r\n\r\n    function add(uint a, uint b) public pure returns (uint) {\r\n        return a+b;\r\n    }\r\n}",
  "sourcePath": "S:\\Projects\\smartlock\\contract\\contracts\\SmartLock.sol",
  "compiler": {
    "name": "solc",
    "version": "0.4.24+commit.e67f0147.Emscripten.clang"
  },
  "schemaVersion": "2.0.0",
  "updatedAt": "2018-07-26T07:33:12.414Z"
}